:020000040000FA
:100000000C9462000C948A000C948A000C948A0070
:100010000C948A000C948A000C948A000C948A0038
:100020000C948A000C948A000C948A000C948A0028
:100030000C948A000C948A000C948A000C948A0018
:100040000C94A4060C948A000C9472060C944C0632
:100050000C948A000C948A000C948A000C948A00F8
:100060000C94EE060C948A00000000002400270087
:100070002A0000000000250028002B0000000000DE
:1000800023002600290004040404040404040202DA
:100090000202020203030303030301020408102007
:1000A0004080010204081020010204081020000012
:1000B0000008000201000003040700000000000027
:1000C00000000D0811241FBECFEFD8E0DEBFCDBF6A
:1000D00011E0A0E0B1E0E4EDF6E102C005900D9280
:1000E000A03CB107D9F723E0A0ECB1E001C01D921C
:1000F000A535B207E1F710E0C2E6D0E004C02197D1
:10010000FE010E94620BC136D107C9F70E94570851
:100110000C94680B0C94000008950895AF92BF9260
:10012000CF92DF92EF92FF920F931F93CF93DF93C3
:100130006C017B018B01040F151FEB015E01AE18F2
:10014000BF08C017D10759F06991D601ED91FC9114
:100150000190F081E02DC6010995892B79F7C50141
:10016000DF91CF911F910F91FF90EF90DF90CF9093
:10017000BF90AF900895FC01538D448D252F30E042
:10018000842F90E0821B930B541710F0CF960895A4
:1001900001970895FC01918D828D981761F0A28DD1
:1001A000AE0FBF2FB11D5D968C91928D9F5F9F7397
:1001B000928F90E008958FEF9FEF0895FC01918D4D
:1001C000828D981731F0828DE80FF11D858D90E0BA
:1001D00008958FEF9FEF0895FC01918D228D892F57
:1001E00090E0805C9F4F821B91098F73992708953F
:1001F00080EA92E00E94EC0021E0892B09F420E0E3
:10020000822F089580E090E0892B29F00E94F80069
:1002100081110C9400000895FC01A48DA80FB92F42
:10022000B11DA35ABF4F2C91848D90E001968F731E
:100230009927848FA689B7892C93A089B1898C913D
:10024000837080648C93938D848D981306C002888C
:10025000F389E02D80818F7D80830895EF92FF9256
:100260000F931F93CF93DF93EC0181E0888F9B8DD9
:100270008C8D98131AC0E889F989808185FF15C093
:100280009FB7F894EE89FF896083E889F9898081B6
:100290008370806480839FBF81E090E0DF91CF9185
:1002A0001F910F91FF90EF900895F62E0B8D10E0A7
:1002B0000F5F1F4F0F731127E02E8C8D8E110CC016
:1002C0000FB607FCFACFE889F989808185FFF5CF61
:1002D000CE010E940C01F1CFEB8DEC0FFD2FF11D33
:1002E000E35AFF4FF0829FB7F8940B8FEA89FB899E
:1002F00080818062CFCFCF93DF93EC01888D8823FC
:10030000B9F0AA89BB89E889F9898C9185FD03C078
:10031000808186FD0DC00FB607FCF7CF8C9185FF5D
:10032000F2CF808185FFEDCFCE010E940C01E9CF95
:10033000DF91CF910895833081F028F4813099F0D6
:100340008230A9F008958730A9F08830C9F0843050
:10035000B1F4809180008F7D03C0809180008F7701
:1003600080938000089584B58F7784BD089584B507
:100370008F7DFBCF8091B0008F778093B000089580
:100380008091B0008F7DF9CFCF93DF93282F30E09D
:10039000F901E255FF4F8491F901E656FF4FD491E0
:1003A000F901EA57FF4FC491CC23A1F081110E94BB
:1003B0009B01EC2FF0E0EE0FFF1FE458FF4FA591DB
:1003C000B491EC91ED2381E090E009F480E0DF91BD
:1003D000CF91089580E090E0FACF1F93CF93DF9301
:1003E000282F30E0F901E255FF4F8491F901E656DC
:1003F000FF4FD491F901EA57FF4FC491CC23A9F0E4
:10040000162F81110E949B01EC2FF0E0EE0FFF1FD1
:10041000EE58FF4FA591B4918FB7F894EC9111115C
:1004200008C0D095DE23DC938FBFDF91CF911F9161
:100430000895DE2BF8CFCF93DF9390E0FC01E656D2
:10044000FF4F24918A579F4FFC0184918823D1F05C
:1004500090E0880F991FFC01E859FF4FA591B491D6
:10046000FC01EE58FF4FC591D491623071F49FB7F3
:10047000F8943C91822F809583238C93E8812E2BD6
:1004800028839FBFDF91CF9108958FB7F894EC91A7
:100490002E2B2C938FBFF6CF3FB7F89480917F021D
:1004A00090918002A0918102B091820226B5A89B12
:1004B00005C02F3F19F00196A11DB11D3FBFBA2FF6
:1004C000A92F982F8827BC01CD01620F711D811DB6
:1004D000911D42E0660F771F881F991F4A95D1F73B
:1004E00008958F929F92AF92BF92CF92DF92EF9238
:1004F000FF924B015C010E944C026B017C010E9447
:100500004C026C197D098E099F09683E7340810574
:100510009105A8F321E0821A9108A108B10888EE9C
:10052000C80E83E0D81EE11CF11C81149104A104C3
:10053000B10429F7FF90EF90DF90CF90BF90AF907C
:100540009F908F900895089520910902260F3327D8
:10055000331F21323105ECF420915202FC0190E06E
:1005600080E0243069F082E00895A0910902219191
:10057000AC0147515E4FA40FB52FB11D2C930196CE
:10058000861798F380910902680F6093090280E052
:10059000089581E008951092520281E08093510203
:1005A00010922C0261E082E10E94ED0161E083E1A2
:1005B0000E94ED01E9EBF0E080818E7F80838081F5
:1005C0008D7F808388E48093B80085E48093BC00AD
:1005D0000895CF93DF9391E09093E8018823B9F0D9
:1005E000C091B800D091BA008091BC008A7B809302
:1005F000BC0060E082E10E94ED0160E083E10E94C6
:10060000ED010E94CB02D093BA00C093B800DF91F5
:10061000CF9108950895E0918A0280918902E817A8
:1006200030F4F0E0E853FE4F808190E008958FEFC2
:100630009FEF089590918A02809189022FEF3FEFFA
:10064000981748F4E92FF0E0E853FE4F208130E09E
:100650009F5F90938A02C9010895809189029091C9
:100660008A02891B990B0895CF92DF92EF92FF9235
:100670000F931F93CF93DF937C01CB018A012091CD
:100680005802222389F0EB016B01C40ED51ECC1554
:10069000DD0569F06991D701ED91FC910190F08140
:1006A000E02DC7010995F3CF642F0E94A402C80171
:1006B000DF91CF911F910F91FF90EF90DF90CF903E
:1006C0000895CF93DF931F92CDB7DEB76983209152
:1006D00058022223F9F020918702203258F021E0BD
:1006E00030E0FC013383228390E080E00F90DF91C3
:1006F000CF91089580918802E82FF0E0E75AFD4FEE
:10070000998190838F5F809388028093870281E034
:1007100090E0ECCF61E0CE0101960E94A402F7CFF9
:10072000CF92DF92EF92FF920F931F93CF93DF93BD
:10073000FC01C48121E020935802C09379021092F9
:100740008802109287028385682B8DE393E00E94D4
:100750006103D0918702D13208F092C00E944C020E
:100760006B017C0180915202811165C082E080930F
:10077000520281E0809351028FEF809350021092D9
:100780004F02D0934E02A9E5B2E0EEE2F2E080E043
:10079000D81385C010922D0280912D02CC0FC82B4A
:1007A000C0932D0280912C02813009F07CC0109200
:1007B0002C020E944C026B017C0180912D028093DF
:1007C000BB008091540290915502A0915602B091C5
:1007D0005702892B8A2B8B2B99F00E944C02009197
:1007E00054021091550220915602309157026C1913
:1007F0007D098E099F090617170728073907E0F1B9
:100800008091BC0083FDD9CF85EC8093BC000E9411
:100810004C026B017C0180915202823009F445C088
:10082000809150028F3F61F180915002803241F1FE
:100830008091500225C08091540290915502A09160
:100840005602B0915702892B8A2B8B2B09F48ACF41
:100850000E944C02009154021091550220915602C0
:10086000309157026C197D098E099F0906171707E9
:100870002807390708F076CF809153020E94E902D9
:10088000109288021092870210925802DF91CF9145
:100890001F910F91FF90EF90DF90CF9008959D9161
:1008A00091938F5F75CF85EEB0CF80915402909178
:1008B0005502A0915602B0915702892B8A2B8B2B9F
:1008C00009F4A9CF0E944C020091540210915502E4
:1008D00020915602309157026C197D098E099F09AB
:1008E000061717072807390708F095CFC5CF90E0FE
:1008F00080E008950F931F938FB7F89440917B0287
:1009000050917C0260917D0270917E028FBF809138
:10091000C4019091C501A091C601B091C7018A019F
:100920009B01081B190B2A0B3B0BD901C801883E00
:100930009340A105B10518F18091C2019091C301C6
:1009400001969093C3018093C2018091C001909160
:10095000C10101969093C1018093C00180918B02E7
:1009600090918C02019690938C0280938B0240931D
:10097000C4015093C5016093C6017093C7011F91D4
:100980000F91089584E00E94C401892B21F481E035
:1009900080938F02089588E00E94C401892BB9F3E7
:1009A00085E00E94C401892BB1F089E00E94C40156
:1009B000892B89F086E00E94C401892BA1F08AE08E
:1009C0000E94C401892B79F087E00E94C401892B21
:1009D00021F484E0DDCF82E0DBCF8BE00E94C40114
:1009E000892BB9F3089583E0D3CF0F931F93CF934F
:1009F0008C01C62F0E9490036C2F6460C8010E9476
:100A000090036C2F6B7FC8010E94900383EC90E0F1
:100A10000197F1F7CF911F910F9108950F931F93B5
:100A2000CF93DF938C01D62FC42F607F642B0E945D
:100A3000F50480E1D89FB00111246C2BC801DF912F
:100A4000CF911F910F910C94F504CF93DF93CDB705
:100A5000DEB728970FB6F894DEBF0FBECDBF98E083
:100A6000E2E0F1E0DE01119601900D929A95E1F736
:100A700090915203961708F46FEF262F30E0220F63
:100A8000331F41E050E04C0F5D1F240F351FF9016B
:100A90006081680F606840E089E493E028960FB6B3
:100AA000F894DEBF0FBECDBFDF91CF910C940E0541
:100AB00041E00E940E0581E090E00895FB01019065
:100AC0000020E9F73197AF01461B570BDC01ED9190
:100AD000FC910280F381E02D09948F929F92AF9256
:100AE000BF920F931F93CF93DF93CDB7DEB7A1973C
:100AF0000FB6F894DEBF0FBECDBF19A2423008F486
:100B00004AE08E010F5D1F4F842E912CB12CA12C39
:100B1000A50194010E94400BE62FB901CA01EA30F9
:100B200004F5E05DD801EE938D01232B242B252BBA
:100B300079F790E080E0109729F0BD0189E493E017
:100B40000E945E05A1960FB6F894DEBF0FBECDBF22
:100B5000DF91CF911F910F91BF90AF909F908F9099
:100B60000895E95CDFCFCF93DF93BC0180EA92E088
:100B70000E945E05EC016AE371E080EA92E00E9467
:100B80005E058C0F9D1FDF91CF910895CF93C82FE5
:100B900061E089E00E9425056DE371E089E493E05E
:100BA0000E945E0561E08FE00E94250560910001D2
:100BB00070E090E080E04AE00E946D05C634D1F418
:100BC00081E080938D0260E080E10E94ED0161E0B0
:100BD0008EE00E94ED0160E08FE00E94ED0160E098
:100BE0008DE00E94250564E471E089E493E0CF91F3
:100BF0000C945E05C234B1F481E080938D0260E014
:100C000080E10E94ED0160E08EE00E94ED0161E074
:100C10008FE00E94ED0160E08DE00E94250568E410
:100C200071E0E3CFCF91089585ED8093BC00809172
:100C3000540290915502A0915602B0915702079626
:100C4000A11DB11D23E0B695A795979587952A9587
:100C5000D1F72091BC0024FD03C0109252020895E8
:100C60004091540250915502609156027091570282
:100C7000452B462B472B69F30097A105B10541F0A1
:100C800025E32A95F1F700000197A109B109E1CF09
:100C9000809153020C94E9021F920F920FB60F92AB
:100CA00011242F933F934F935F936F937F938F9371
:100CB0009F93AF93BF93EF93FF9380EA92E00E94DC
:100CC0000C01FF91EF91BF91AF919F918F917F9117
:100CD0006F915F914F913F912F910F900FBE0F90A9
:100CE0001F9018951F920F920FB60F9211242F93F9
:100CF0008F939F93EF93FF93E091B002F091B10235
:100D00008081E091B602F091B70282FD1BC0908114
:100D10008091B9028F5F8F732091BA02821741F0E0
:100D2000E091B902F0E0E056FD4F958F8093B90253
:100D3000FF91EF919F918F912F910F900FBE0F9088
:100D40001F9018958081F4CF1F920F920FB60F92CB
:100D500011242F933F938F939F93AF93BF938091D1
:100D60007B0290917C02A0917D02B0917E02309135
:100D70007A0223E0230F2D3758F50196A11DB11DEE
:100D800020937A0280937B0290937C02A0937D0251
:100D9000B0937E0280917F0290918002A0918102A7
:100DA000B09182020196A11DB11D80937F029093A4
:100DB0008002A0938102B0938202BF91AF919F9174
:100DC0008F913F912F910F900FBE0F901F9018950C
:100DD00026E8230F0296A11DB11DD2CF1F920F92BC
:100DE0000FB60F9211242F933F934F935F936F93FE
:100DF0007F938F939F93AF93BF93EF93FF938091D4
:100E0000B900887F803609F44AC0F0F5883209F4C9
:100E1000A7C018F5803109F49BC0B8F4882309F401
:100E2000F9C0883009F494C0FF91EF91BF91AF9160
:100E30009F918F917F916F915F914F913F912F91F2
:100E40000F900FBE0F901F901895883109F488C03D
:100E5000803251F78093500214C0803409F49DC051
:100E600040F48033B9F38833F9F68093500285EC6F
:100E7000B0C0803509F485C0883509F496C088343F
:100E800099F60E941406D0CF883909F48CC038F541
:100E9000883729F050F4883611F0803729F683E03E
:100EA0008093520210922B0257C0883809F47BC0FD
:100EB000803919F0803809F0B7CF80912B02803249
:100EC00008F071C0E0912B0281E08E0F80932B021D
:100ED0008091BB00F0E0E55FFD4F80833DC0803B2B
:100EE00039F0E0F4803A09F479C0883A09F09CCFEF
:100EF00084E08093520210920A0210920902E0915B
:100F00008502F091860209958091090281110FC036
:100F100081E0809309021092E90109C0803C09F444
:100F2000A6CF883C09F4A3CF883B09F07DCFE091A0
:100F30000A0281E08E0F80930A02F0E0E751FE4F33
:100F400080818093BB0090910A028091090229C0A0
:100F500080912D028093BB0085EC8093BC0064CF10
:100F600090914F0280914E02981758F5E0914F02F0
:100F700081E08E0F80934F02F0E0E25DFD4F8081B3
:100F8000E9CFE0914F0281E08E0F80934F02809174
:100F9000BB00F0E0E25DFD4F808390914F028091B5
:100FA0004E029817C8F285E8D8CFE0914F0281E051
:100FB0008E0F80934F028091BB00F0E0E25DFD4F09
:100FC00080838091510281115CCF81E080932C025B
:100FD00084EA8093BC001092520226CF85EC809365
:100FE000BC001092520280912B02803230F4E091CA
:100FF0002B02F0E0E55FFD4F108260912B0270E064
:10100000E0918302F09184028BE092E009951092C6
:101010002B020ACF1092500234CFE0EAF2E01382A2
:10102000128288EE93E0A0E0B0E084839583A683EB
:10103000B7832EE031E03183208325EC30E0358723
:10104000248724EC30E03787268720EC30E0318B92
:10105000208B21EC30E0338B228B22EC30E0358B7F
:10106000248B26EC30E0378B268B118E128E138E5C
:10107000148EEDE3F3E01382128284839583A683BA
:10108000B78380E291E091838083E9E4F3E0138207
:10109000128282E391E09183808387E2848380E1FE
:1010A000808782E08187128688E08387089578941C
:1010B00084B5826084BD84B5816084BD85B582605D
:1010C00085BD85B5816085BD80916E00816080930E
:1010D0006E00109281008091810082608093810077
:1010E0008091810081608093810080918000816087
:1010F000809380008091B10084608093B1008091E2
:10110000B00081608093B00080917A008460809309
:101110007A0080917A00826080937A0080917A00D0
:10112000816080937A0080917A00806880937A0051
:101130001092C10061E08EE00E941B0261E08FE02E
:101140000E941B0261E082E00E941B0261E083E0DA
:101150000E941B0261E080E10E941B0262E084E0C9
:101160000E941B0262E085E00E941B0262E086E0B2
:101170000E941B0262E087E00E941B0262E088E09E
:101180000E941B0262E089E00E941B0262E08AE08A
:101190000E941B0262E08BE00E941B0210928A02F6
:1011A0001092890210928802109287020E94CB024C
:1011B0008CE890E090938602809385028DE890E021
:1011C000909384028093830210924E038091520385
:1011D000823018F098E090934E0390915303992336
:1011E00039F0813029F480914E03846080934E035E
:1011F00062E370E080E090E00E947102609154032D
:1012000089E493E00E94900368EE73E080E090E050
:101210000E94710260E389E493E00E94F504CBE44C
:10122000D6E4CE010197F1F760E389E493E00E94F0
:10123000F5042197F1F760E389E493E00E94F50457
:1012400083E592E00197F1F760E289E493E00E9480
:10125000F50460914E03606240E089E493E00E94EF
:101260000E0584E080934F0340E06CE089E493E056
:101270000E940E0540E061E089E493E00E940E05C3
:10128000CBE3DFE1CE010197F1F712E010935003B9
:1012900040E066E089E493E00E940E0540E062E0F1
:1012A00089E493E00E940E052197F1F7E091B002E6
:1012B000F091B1021083E091AC02F091AD02108286
:1012C000E091AE02F091AF028FEC80831092B802F1
:1012D000E091B402F091B50286E08083E091B20221
:1012E000F091B302808180618083E091B202F0913D
:1012F000B302808188608083E091B202F091B302F2
:10130000808180688083E091B202F091B302808195
:101310008F7D80838CE491E00E94B30560E08EE0D5
:101320000E94ED0160E08FE00E94ED0160E082E04C
:101330000E94ED0160E083E00E94ED0160E080E149
:101340000E94ED0160E080E00E94250565E671E005
:1013500089E493E00E945E0561E080E00E9425053B
:1013600066E771E089E493E00E945E0560ED77E056
:1013700080E090E00E94710260E080E00E9425051C
:1013800067E871E089E493E00E945E0561E080E037
:101390000E94250568E971E089E493E00E945E05FA
:1013A00080E0E82E80E0F82E03E0C1E00E947A049D
:1013B00080EA92E00E94EC0018161906A4F4D0917D
:1013C0009F0280EA92E00E94CA00ED2FF0E0E05711
:1013D000FD4F808369E170E080E090E00E9471023F
:1013E000DF5FD0939F0280919F028230C8F080918E
:1013F00090028A3239F480919102813409F063C0FD
:10140000C093010160E084E00E9425056091010124
:1014100070E090E080E04AE00E946D0510929F022B
:1014200084E00E94C401892B09F05EC080918E0285
:10143000882309F465C085E00E94C401892B09F066
:1014400066C080918E02882309F46DC086E00E94F8
:10145000C401892B09F06AC080918E02882309F4A7
:1014600071C087E00E94C401892B09F06EC0809191
:101470008E02882309F475C080918E02813009F0B4
:10148000EAC00E94C2049091000180910101891775
:1014900008F06BC086E40E94C60589EA91E00E94CC
:1014A000B30564E670E080E090E00E947102E11410
:1014B000F10409F47BCF0E94F800882309F476CF69
:1014C0000E94000073CF823419F4109301019ACF67
:1014D000833419F40093010195CF843409F092CF3D
:1014E00084E0809301018ECF88E00E94C401892BA3
:1014F00009F49CCF80918F02813009F09CCF96CF68
:10150000C093000110928F02C0938E02B5CF89E084
:101510000E94C401892B09F494CF80918F028230FC
:1015200009F094CF8ECF10930001ECCF8AE00E9497
:10153000C401892B09F490CF80918F02833009F088
:1015400090CF8ACF00930001DDCF8BE00E94C401D1
:10155000892B09F48CCF80918F02843009F08CCFD5
:1015600086CF84E080930001CDCF981730F482E4D9
:101570000E94C60581EB91E092CF981398CF60E06E
:101580008EE00E94ED0160E08FE00E94ED0160E0DE
:101590008DE00E94250564E971E089E493E00E94F2
:1015A0005E058AEB91E00E94B30561E089E00E944C
:1015B000250561EA71E089E493E00E945E0580916F
:1015C0008D02882309F444C061E080E10E94ED01AE
:1015D00060E082E00E94ED0161E083E00E94ED01A5
:1015E00068EB7BE080E090E00E94710260E080E1C7
:1015F0000E94ED0160E082E00E94ED0160E083E086
:101600000E94ED0168E873E180E090E00E947102C1
:1016100061E080E10E94ED0161E082E00E94ED0165
:1016200060E083E00E94ED0168EB7BE080E090E009
:101630000E94710260E080E10E94ED0160E082E0C2
:101640000E94ED0160E083E00E94ED0110928D02A6
:1016500010938E022CCF823009F029CF10928C0289
:1016600010928B0280918B0290918C02059728F446
:101670000E94C2040E947A04F5CF10928E0217CF06
:10168000A1E21A2EAA1BBB1BFD010DC0AA1FBB1F86
:10169000EE1FFF1FA217B307E407F50720F0A21BF8
:1016A000B30BE40BF50B661F771F881F991F1A9465
:1016B00069F760957095809590959B01AC01BD018F
:1016C000CF010895EE0FFF1F0590F491E02D0994CE
:1016D000F894FFCF01010000400014005400000006
:1016E00000002E018E00BB007B01EC00CA00DE0072
:1016F000000000006103340377040A032D031A037A
:101700000B030000000058058E007704A3020D0AA9
:10171000003E526F6F6D2D0046574400424B5700FC
:10172000434F564944424F542067657474696E674D
:101730002072656164792E2E0020202020434F56B0
:101740004944424F542020202000202020202020E7
:101750002020202020202020202000526F6F6D317B
:10176000202020202056682D535450002020202077
:1017700020202020202D494445414C2D00464F5229
:1017800057415244004241434B5741524400535445
:041790004F500000B6
:107E0000112484B714BE81FFF0D085E080938100F7
:107E100082E08093C00088E18093C10086E0809377
:107E2000C20080E18093C4008EE0C9D0259A86E02C
:107E300020E33CEF91E0309385002093840096BBD3
:107E4000B09BFECF1D9AA8958150A9F7CC24DD24C4
:107E500088248394B5E0AB2EA1E19A2EF3E0BF2EE7
:107E6000A2D0813461F49FD0082FAFD0023811F036
:107E7000013811F484E001C083E08DD089C08234E0
:107E800011F484E103C0853419F485E0A6D080C0E4
:107E9000853579F488D0E82EFF2485D0082F10E0AE
:107EA000102F00270E291F29000F111F8ED06801E7
:107EB0006FC0863521F484E090D080E0DECF843638
:107EC00009F040C070D06FD0082F6DD080E0C81688
:107ED00080E7D80618F4F601B7BEE895C0E0D1E017
:107EE00062D089930C17E1F7F0E0CF16F0E7DF06D8
:107EF00018F0F601B7BEE89568D007B600FCFDCFD4
:107F0000A601A0E0B1E02C9130E011968C91119780
:107F100090E0982F8827822B932B1296FA010C0160
:107F200087BEE89511244E5F5F4FF1E0A038BF0790
:107F300051F7F601A7BEE89507B600FCFDCF97BE46
:107F4000E89526C08437B1F42ED02DD0F82E2BD052
:107F50003CD0F601EF2C8F010F5F1F4F84911BD097
:107F6000EA94F801C1F70894C11CD11CFA94CF0C13
:107F7000D11C0EC0853739F428D08EE10CD085E9AC
:107F80000AD08FE07ACF813511F488E018D01DD067
:107F900080E101D065CF982F8091C00085FFFCCF94
:107FA0009093C60008958091C00087FFFCCF809118
:107FB000C00084FD01C0A8958091C6000895E0E648
:107FC000F0E098E1908380830895EDDF803219F02E
:107FD00088E0F5DFFFCF84E1DECF1F93182FE3DFCA
:107FE0001150E9F7F2DF1F91089580E0E8DFEE27F6
:047FF000FF270994CA
:027FFE00040479
:00000001FF
